{
  "contractName": "ihale_t",
  "abi": [
    {
      "constant": false,
      "inputs": [
        {
          "name": "sirketAdi",
          "type": "string"
        },
        {
          "name": "sermaye",
          "type": "uint64"
        },
        {
          "name": "altIhaleId",
          "type": "uint8"
        },
        {
          "name": "telNo",
          "type": "string"
        },
        {
          "name": "mail",
          "type": "string"
        },
        {
          "name": "faxNo",
          "type": "string"
        },
        {
          "name": "adres",
          "type": "string"
        },
        {
          "name": "sirketPublicKey",
          "type": "address"
        }
      ],
      "name": "createSirket",
      "outputs": [],
      "payable": false,
      "stateMutability": "nonpayable",
      "type": "function"
    },
    {
      "constant": false,
      "inputs": [
        {
          "name": "ihaleAcanSirketId",
          "type": "uint8"
        },
        {
          "name": "isTanimi",
          "type": "string"
        },
        {
          "name": "sartname",
          "type": "string"
        },
        {
          "name": "tarih",
          "type": "uint256"
        },
        {
          "name": "ihalePublicKey",
          "type": "address"
        }
      ],
      "name": "createIhale",
      "outputs": [],
      "payable": false,
      "stateMutability": "nonpayable",
      "type": "function"
    },
    {
      "constant": false,
      "inputs": [
        {
          "name": "sirketPublicKey",
          "type": "address"
        },
        {
          "name": "baslangiczamani",
          "type": "uint256"
        },
        {
          "name": "bitiszamani",
          "type": "uint256"
        },
        {
          "name": "fiyatmin",
          "type": "uint64"
        }
      ],
      "name": "addAltIhale",
      "outputs": [],
      "payable": false,
      "stateMutability": "nonpayable",
      "type": "function"
    },
    {
      "constant": false,
      "inputs": [
        {
          "name": "teklifIndex",
          "type": "uint8"
        },
        {
          "name": "teklifSirketPublicKey",
          "type": "address"
        },
        {
          "name": "teklif",
          "type": "uint64"
        }
      ],
      "name": "getTeklifler",
      "outputs": [],
      "payable": false,
      "stateMutability": "nonpayable",
      "type": "function"
    }
  ],
  "bytecode": "0x60806040526000600860006101000a81548160ff021916908360ff16021790555034801561002c57600080fd5b50610c6b8061003c6000396000f3fe608060405234801561001057600080fd5b506004361061004c5760003560e01c806337812fee146100515780634439760c1461006d578063ddd22ae714610089578063fc0e5409146100a5575b600080fd5b61006b600480360361006691908101906108f0565b6100c1565b005b6100876004803603610082919081019061088d565b610353565b005b6100a3600480360361009e9190810190610a69565b6104bd565b005b6100bf60048036036100ba9190810190610a1a565b610635565b005b6001604051806101200160405280600860009054906101000a900460ff1660ff1681526020018a81526020018967ffffffffffffffff1681526020018860ff1681526020018781526020018681526020018581526020018481526020018373ffffffffffffffffffffffffffffffffffffffff168152509080600181540180825580915050906001820390600052602060002090600802016000909192909190915060008201518160000160006101000a81548160ff021916908360ff16021790555060208201518160010190805190602001906101a0929190610740565b5060408201518160020160006101000a81548167ffffffffffffffff021916908367ffffffffffffffff16021790555060608201518160020160086101000a81548160ff021916908360ff160217905550608082015181600301908051906020019061020d929190610740565b5060a082015181600401908051906020019061022a929190610740565b5060c0820151816005019080519060200190610247929190610740565b5060e0820151816006019080519060200190610264929190610740565b506101008201518160070160006101000a81548173ffffffffffffffffffffffffffffffffffffffff021916908373ffffffffffffffffffffffffffffffffffffffff1602179055505050508060096000600860009054906101000a900460ff1660ff1660ff16815260200190815260200160002060006101000a81548173ffffffffffffffffffffffffffffffffffffffff021916908373ffffffffffffffffffffffffffffffffffffffff1602179055506008600081819054906101000a900460ff168092919060010191906101000a81548160ff021916908360ff160217905550505050505050505050565b60006040518060c001604052808673ffffffffffffffffffffffffffffffffffffffff1681526020018581526020018481526020018367ffffffffffffffff168152602001600067ffffffffffffffff168152602001600015158152509080600181540180825580915050906001820390600052602060002090600402016000909192909190915060008201518160000160006101000a81548173ffffffffffffffffffffffffffffffffffffffff021916908373ffffffffffffffffffffffffffffffffffffffff160217905550602082015181600101556040820151816002015560608201518160030160006101000a81548167ffffffffffffffff021916908367ffffffffffffffff16021790555060808201518160030160086101000a81548167ffffffffffffffff021916908367ffffffffffffffff16021790555060a08201518160030160106101000a81548160ff02191690831515021790555050505050505050565b6040518060e001604052808660ff168152602001858152602001848152602001838152602001600067ffffffffffffffff1681526020018273ffffffffffffffffffffffffffffffffffffffff168152602001600067ffffffffffffffff16815250600260008201518160000160006101000a81548160ff021916908360ff160217905550602082015181600101908051906020019061055e929190610740565b50604082015181600201908051906020019061057b929190610740565b506060820151816003015560808201518160040160006101000a81548167ffffffffffffffff021916908367ffffffffffffffff16021790555060a08201518160040160086101000a81548173ffffffffffffffffffffffffffffffffffffffff021916908373ffffffffffffffffffffffffffffffffffffffff16021790555060c08201518160050160006101000a81548167ffffffffffffffff021916908367ffffffffffffffff1602179055509050505050505050565b8067ffffffffffffffff1660008460ff168154811061065057fe5b906000526020600020906004020160030160009054906101000a900467ffffffffffffffff1667ffffffffffffffff161080156106d557508067ffffffffffffffff1660008460ff16815481106106a357fe5b906000526020600020906004020160030160089054906101000a900467ffffffffffffffff1667ffffffffffffffff16105b1561073b578160008460ff16815481106106eb57fe5b906000526020600020906004020160000160006101000a81548173ffffffffffffffffffffffffffffffffffffffff021916908373ffffffffffffffffffffffffffffffffffffffff1602179055505b505050565b828054600181600116156101000203166002900490600052602060002090601f016020900481019282601f1061078157805160ff19168380011785556107af565b828001600101855582156107af579182015b828111156107ae578251825591602001919060010190610793565b5b5090506107bc91906107c0565b5090565b6107e291905b808211156107de5760008160009055506001016107c6565b5090565b90565b6000813590506107f481610bd5565b92915050565b600082601f83011261080b57600080fd5b813561081e61081982610b3d565b610b10565b9150808252602083016020830185838301111561083a57600080fd5b610845838284610bc6565b50505092915050565b60008135905061085d81610bec565b92915050565b60008135905061087281610c03565b92915050565b60008135905061088781610c1a565b92915050565b600080600080608085870312156108a357600080fd5b60006108b1878288016107e5565b94505060206108c28782880161084e565b93505060406108d38782880161084e565b92505060606108e487828801610863565b91505092959194509250565b600080600080600080600080610100898b03121561090d57600080fd5b600089013567ffffffffffffffff81111561092757600080fd5b6109338b828c016107fa565b98505060206109448b828c01610863565b97505060406109558b828c01610878565b965050606089013567ffffffffffffffff81111561097257600080fd5b61097e8b828c016107fa565b955050608089013567ffffffffffffffff81111561099b57600080fd5b6109a78b828c016107fa565b94505060a089013567ffffffffffffffff8111156109c457600080fd5b6109d08b828c016107fa565b93505060c089013567ffffffffffffffff8111156109ed57600080fd5b6109f98b828c016107fa565b92505060e0610a0a8b828c016107e5565b9150509295985092959890939650565b600080600060608486031215610a2f57600080fd5b6000610a3d86828701610878565b9350506020610a4e868287016107e5565b9250506040610a5f86828701610863565b9150509250925092565b600080600080600060a08688031215610a8157600080fd5b6000610a8f88828901610878565b955050602086013567ffffffffffffffff811115610aac57600080fd5b610ab8888289016107fa565b945050604086013567ffffffffffffffff811115610ad557600080fd5b610ae1888289016107fa565b9350506060610af28882890161084e565b9250506080610b03888289016107e5565b9150509295509295909350565b6000604051905081810181811067ffffffffffffffff82111715610b3357600080fd5b8060405250919050565b600067ffffffffffffffff821115610b5457600080fd5b601f19601f8301169050602081019050919050565b6000610b7482610b7b565b9050919050565b600073ffffffffffffffffffffffffffffffffffffffff82169050919050565b6000819050919050565b600067ffffffffffffffff82169050919050565b600060ff82169050919050565b82818337600083830152505050565b610bde81610b69565b8114610be957600080fd5b50565b610bf581610b9b565b8114610c0057600080fd5b50565b610c0c81610ba5565b8114610c1757600080fd5b50565b610c2381610bb9565b8114610c2e57600080fd5b5056fea265627a7a72305820421d15ce1c1c048fe330b9b1316a7436777927128fb87ae3f7faa4ba00f107a36c6578706572696d656e74616cf50037",
  "source": "pragma solidity ^0.5.8;\npragma experimental ABIEncoderV2;\n\ncontract ihale_t{\n    struct Ihale{\n        uint8 ihaleAcanSirketId;\n        string isTanimi;\n        string sartname;\n        uint256 tarih;\n        uint64 toplamButce;\n        address this;\n        uint64 toplamOdeme;\n        \n    }\n    struct Sirket{\n        uint8 id;\n        string sirketAdi;\n        uint64 sermaye;\n        uint8 altIhaleId;\n        string telNo;\n        string mail;\n        string faxNo;\n        string adress;\n        address sirketPublicKey;\n        \n    }\n    struct AltIhale{\n        address sirketPublicKey;\n        uint256 baslangiczamani;\n        uint256 bitiszamani;\n        uint64 fiyatmin;\n        uint64 fiyat;\n        bool bitti;\n    }\n    AltIhale[] altIhaleler; \n    Sirket[] ihaleyeGirecekSirketler;\n    Ihale ihale;\n    uint8 sirketIndex=0;\n    mapping ( uint8=> address) sirketPubtoIndex;\n    mapping (uint8 => uint8)   yetkisiIdtoSirket;\n    function createSirket(string memory sirketAdi,uint64 sermaye,uint8 altIhaleId,string memory telNo,string memory mail,string memory faxNo,string memory adres,address sirketPublicKey) public {\n        ihaleyeGirecekSirketler.push(Sirket(sirketIndex,sirketAdi,sermaye,altIhaleId,telNo,mail,faxNo,adres,sirketPublicKey));\n        sirketPubtoIndex[sirketIndex]=sirketPublicKey;\n        sirketIndex++;\n    }\n    function createIhale(uint8 ihaleAcanSirketId,string memory isTanimi,string memory sartname,uint256  tarih, address ihalePublicKey) public {\n        ihale=Ihale(ihaleAcanSirketId,isTanimi,sartname,tarih,0,ihalePublicKey,0);\n    }\n    function addAltIhale(address sirketPublicKey,uint256 baslangiczamani,uint256 bitiszamani,uint64 fiyatmin)public {\n        altIhaleler.push(AltIhale(sirketPublicKey,baslangiczamani,bitiszamani,fiyatmin,0,false));\n    }\n    function getTeklifler(uint8 teklifIndex,address teklifSirketPublicKey,uint64 teklif) public{\n        if(altIhaleler[teklifIndex].fiyatmin<teklif&&altIhaleler[teklifIndex].fiyat<teklif){\n            altIhaleler[teklifIndex].sirketPublicKey=teklifSirketPublicKey;\n        }\n    }\n}",
  "sourcePath": "/home/utkuglsvn/Masa端st端/Smart-Contract-for-Public-Bidding/contracts/deneme.sol",
  "compiler": {
    "name": "solc",
    "version": "0.5.8+commit.23d335f2.Emscripten.clang"
  },
  "schemaVersion": "3.0.11",
  "updatedAt": "2019-07-28T23:05:33.923Z",
  "devdoc": {
    "methods": {}
  },
  "userdoc": {
    "methods": {}
  }
}