{
  "contractName": "ihale_t",
  "abi": [
    {
      "constant": false,
      "inputs": [
        {
          "name": "sirketAdi",
          "type": "string"
        },
        {
          "name": "sermaye",
          "type": "uint64"
        },
        {
          "name": "altIhaleId",
          "type": "uint8"
        },
        {
          "name": "telNo",
          "type": "string"
        },
        {
          "name": "mail",
          "type": "string"
        },
        {
          "name": "faxNo",
          "type": "string"
        },
        {
          "name": "adres",
          "type": "string"
        },
        {
          "name": "sirketPublicKey",
          "type": "address"
        }
      ],
      "name": "createSirket",
      "outputs": [],
      "payable": false,
      "stateMutability": "nonpayable",
      "type": "function"
    },
    {
      "constant": false,
      "inputs": [
        {
          "name": "isTanimi",
          "type": "string"
        },
        {
          "name": "sartname",
          "type": "string"
        },
        {
          "name": "tarih",
          "type": "uint256"
        },
        {
          "name": "sirketPublicKey",
          "type": "address"
        }
      ],
      "name": "createIhale",
      "outputs": [],
      "payable": false,
      "stateMutability": "nonpayable",
      "type": "function"
    },
    {
      "constant": false,
      "inputs": [
        {
          "name": "sirketPublicKey",
          "type": "address"
        },
        {
          "name": "baslangiczamani",
          "type": "uint256"
        },
        {
          "name": "bitiszamani",
          "type": "uint256"
        },
        {
          "name": "fiyatmin",
          "type": "uint64"
        }
      ],
      "name": "addAltIhale",
      "outputs": [],
      "payable": false,
      "stateMutability": "nonpayable",
      "type": "function"
    },
    {
      "constant": false,
      "inputs": [
        {
          "name": "teklifIndex",
          "type": "uint8"
        },
        {
          "name": "teklifSirketPublicKey",
          "type": "address"
        },
        {
          "name": "teklif",
          "type": "uint64"
        }
      ],
      "name": "getTeklifler",
      "outputs": [],
      "payable": false,
      "stateMutability": "nonpayable",
      "type": "function"
    }
  ],
  "bytecode": "0x60806040526000600860006101000a81548160ff021916908360ff16021790555034801561002c57600080fd5b50610d928061003c6000396000f3fe608060405234801561001057600080fd5b506004361061004c5760003560e01c806337812fee146100515780634439760c146103aa578063ea8e502614610416578063fc0e540914610592575b600080fd5b6103a8600480360361010081101561006857600080fd5b810190808035906020019064010000000081111561008557600080fd5b82018360208201111561009757600080fd5b803590602001918460018302840111640100000000831117156100b957600080fd5b91908080601f016020809104026020016040519081016040528093929190818152602001838380828437600081840152601f19601f820116905080830192505050505050509192919290803567ffffffffffffffff169060200190929190803560ff1690602001909291908035906020019064010000000081111561013d57600080fd5b82018360208201111561014f57600080fd5b8035906020019184600183028401116401000000008311171561017157600080fd5b91908080601f016020809104026020016040519081016040528093929190818152602001838380828437600081840152601f19601f820116905080830192505050505050509192919290803590602001906401000000008111156101d457600080fd5b8201836020820111156101e657600080fd5b8035906020019184600183028401116401000000008311171561020857600080fd5b91908080601f016020809104026020016040519081016040528093929190818152602001838380828437600081840152601f19601f8201169050808301925050505050505091929192908035906020019064010000000081111561026b57600080fd5b82018360208201111561027d57600080fd5b8035906020019184600183028401116401000000008311171561029f57600080fd5b91908080601f016020809104026020016040519081016040528093929190818152602001838380828437600081840152601f19601f8201169050808301925050505050505091929192908035906020019064010000000081111561030257600080fd5b82018360208201111561031457600080fd5b8035906020019184600183028401116401000000008311171561033657600080fd5b91908080601f016020809104026020016040519081016040528093929190818152602001838380828437600081840152601f19601f820116905080830192505050505050509192919290803573ffffffffffffffffffffffffffffffffffffffff1690602001909291905050506105f7565b005b610414600480360360808110156103c057600080fd5b81019080803573ffffffffffffffffffffffffffffffffffffffff1690602001909291908035906020019092919080359060200190929190803567ffffffffffffffff169060200190929190505050610889565b005b6105906004803603608081101561042c57600080fd5b810190808035906020019064010000000081111561044957600080fd5b82018360208201111561045b57600080fd5b8035906020019184600183028401116401000000008311171561047d57600080fd5b91908080601f016020809104026020016040519081016040528093929190818152602001838380828437600081840152601f19601f820116905080830192505050505050509192919290803590602001906401000000008111156104e057600080fd5b8201836020820111156104f257600080fd5b8035906020019184600183028401116401000000008311171561051457600080fd5b91908080601f016020809104026020016040519081016040528093929190818152602001838380828437600081840152601f19601f82011690508083019250505050505050919291929080359060200190929190803573ffffffffffffffffffffffffffffffffffffffff1690602001909291905050506109f3565b005b6105f5600480360360608110156105a857600080fd5b81019080803560ff169060200190929190803573ffffffffffffffffffffffffffffffffffffffff169060200190929190803567ffffffffffffffff169060200190929190505050610bb6565b005b6001604051806101200160405280600860009054906101000a900460ff1660ff1681526020018a81526020018967ffffffffffffffff1681526020018860ff1681526020018781526020018681526020018581526020018481526020018373ffffffffffffffffffffffffffffffffffffffff168152509080600181540180825580915050906001820390600052602060002090600802016000909192909190915060008201518160000160006101000a81548160ff021916908360ff16021790555060208201518160010190805190602001906106d6929190610cc1565b5060408201518160020160006101000a81548167ffffffffffffffff021916908367ffffffffffffffff16021790555060608201518160020160086101000a81548160ff021916908360ff1602179055506080820151816003019080519060200190610743929190610cc1565b5060a0820151816004019080519060200190610760929190610cc1565b5060c082015181600501908051906020019061077d929190610cc1565b5060e082015181600601908051906020019061079a929190610cc1565b506101008201518160070160006101000a81548173ffffffffffffffffffffffffffffffffffffffff021916908373ffffffffffffffffffffffffffffffffffffffff160217905550505050600860009054906101000a900460ff16600960008373ffffffffffffffffffffffffffffffffffffffff1673ffffffffffffffffffffffffffffffffffffffff16815260200190815260200160002060006101000a81548160ff021916908360ff1602179055506008600081819054906101000a900460ff168092919060010191906101000a81548160ff021916908360ff160217905550505050505050505050565b60006040518060c001604052808673ffffffffffffffffffffffffffffffffffffffff1681526020018581526020018481526020018367ffffffffffffffff168152602001600067ffffffffffffffff168152602001600015158152509080600181540180825580915050906001820390600052602060002090600402016000909192909190915060008201518160000160006101000a81548173ffffffffffffffffffffffffffffffffffffffff021916908373ffffffffffffffffffffffffffffffffffffffff160217905550602082015181600101556040820151816002015560608201518160030160006101000a81548167ffffffffffffffff021916908367ffffffffffffffff16021790555060808201518160030160086101000a81548167ffffffffffffffff021916908367ffffffffffffffff16021790555060a08201518160030160106101000a81548160ff02191690831515021790555050505050505050565b6040518060e00160405280600960008473ffffffffffffffffffffffffffffffffffffffff1673ffffffffffffffffffffffffffffffffffffffff16815260200190815260200160002060009054906101000a900460ff1660ff168152602001858152602001848152602001838152602001600067ffffffffffffffff1681526020013073ffffffffffffffffffffffffffffffffffffffff168152602001600067ffffffffffffffff16815250600260008201518160000160006101000a81548160ff021916908360ff1602179055506020820151816001019080519060200190610ae0929190610cc1565b506040820151816002019080519060200190610afd929190610cc1565b506060820151816003015560808201518160040160006101000a81548167ffffffffffffffff021916908367ffffffffffffffff16021790555060a08201518160040160086101000a81548173ffffffffffffffffffffffffffffffffffffffff021916908373ffffffffffffffffffffffffffffffffffffffff16021790555060c08201518160050160006101000a81548167ffffffffffffffff021916908367ffffffffffffffff16021790555090505050505050565b8067ffffffffffffffff1660008460ff1681548110610bd157fe5b906000526020600020906004020160030160009054906101000a900467ffffffffffffffff1667ffffffffffffffff16108015610c5657508067ffffffffffffffff1660008460ff1681548110610c2457fe5b906000526020600020906004020160030160089054906101000a900467ffffffffffffffff1667ffffffffffffffff16105b15610cbc578160008460ff1681548110610c6c57fe5b906000526020600020906004020160000160006101000a81548173ffffffffffffffffffffffffffffffffffffffff021916908373ffffffffffffffffffffffffffffffffffffffff1602179055505b505050565b828054600181600116156101000203166002900490600052602060002090601f016020900481019282601f10610d0257805160ff1916838001178555610d30565b82800160010185558215610d30579182015b82811115610d2f578251825591602001919060010190610d14565b5b509050610d3d9190610d41565b5090565b610d6391905b80821115610d5f576000816000905550600101610d47565b5090565b9056fea165627a7a72305820b11bf7874c9d9579d6fcb89df9119b433c520e2e160f6a0e24aabb5acbe116b70029",
  "source": "pragma solidity ^0.5.8;\n//pragma experimental ABIEncoderV2;\ncontract ihale_t{\n    struct Ihale{\n        uint8 ihaleAcanSirketId;\n        string isTanimi;\n        string sartname;\n        uint256 tarih;\n        uint64 toplamButce;\n        address ihalePublicKey;\n        uint64 toplamOdeme;\n    }\n    struct Sirket{\n        uint8 id;//\n        string sirketAdi;\n        uint64 sermaye;\n        uint8 altIhaleId;\n        string telNo;\n        string mail;\n        string faxNo;\n        string adress;\n        address sirketPublicKey;\n        \n    }\n    struct AltIhale{\n        address sirketPublicKey;\n        uint256 baslangiczamani;\n        uint256 bitiszamani;\n        uint64 fiyatmin;\n        uint64 fiyat;\n        bool bitti;\n    }\n    AltIhale[] altIhaleler; \n    Sirket[] ihaleyeGirecekSirketler;\n    Ihale ihale;\n    uint8 sirketIndex=0;\n    mapping (address => uint8) sirketPubtoIndex;\n    function createSirket(string memory sirketAdi,uint64 sermaye,uint8 altIhaleId,string memory telNo,string memory mail,string memory faxNo,string memory adres,address sirketPublicKey) public {\n        ihaleyeGirecekSirketler.push(Sirket(sirketIndex,sirketAdi,sermaye,altIhaleId,telNo,mail,faxNo,adres,sirketPublicKey));\n        sirketPubtoIndex[sirketPublicKey]=sirketIndex;\n        sirketIndex++;\n    }\n    function createIhale(string memory isTanimi,string memory sartname,uint256  tarih, address sirketPublicKey) public {\n        //address ihaleadress=this;\n        ihale=Ihale(sirketPubtoIndex[sirketPublicKey],isTanimi,sartname,tarih,0,address(this),0);\n    }\n    function addAltIhale(address sirketPublicKey,uint256 baslangiczamani,uint256 bitiszamani,uint64 fiyatmin)public {\n        altIhaleler.push(AltIhale(sirketPublicKey,baslangiczamani,bitiszamani,fiyatmin,0,false));\n    }\n    function getTeklifler(uint8 teklifIndex,address teklifSirketPublicKey,uint64 teklif) public{\n        if(altIhaleler[teklifIndex].fiyatmin<teklif&&altIhaleler[teklifIndex].fiyat<teklif){\n            altIhaleler[teklifIndex].sirketPublicKey=teklifSirketPublicKey;\n        }\n    }\n}",
  "sourcePath": "/Users/muhammedsuhademirel/Desktop/example project/Smart-Contract-for-Public-Bidding/contracts/deneme2.sol",
  "compiler": {
    "name": "solc",
    "version": "0.5.8+commit.23d335f2.Emscripten.clang"
  },
  "schemaVersion": "3.0.11",
  "updatedAt": "2019-07-29T07:17:26.627Z",
  "devdoc": {
    "methods": {}
  },
  "userdoc": {
    "methods": {}
  }
}